:020000040800F2
:1000000078060020CD010008D5010008D7010008BE
:10001000D9010008DB010008DD0100080000000034
:10002000000000000000000000000000DF010008E8
:10003000E101000800000000E3010008E5010008FC
:10004000E7010008E7010008E7010008E7010008F0
:10005000E7010008E7010008E7010008E7010008E0
:10006000E7010008E7010008E7010008E7010008D0
:10007000E7010008E7010008E7010008E7010008C0
:10008000E7010008E7010008E7010008E7010008B0
:10009000E7010008E7010008E7010008E7010008A0
:1000A000E7010008E7010008E7010008E701000890
:1000B000E7010008E7010008E7010008E701000880
:1000C000E7010008E7010008E7010008E701000870
:1000D000E7010008E7010008E7010008E701000860
:1000E000E7010008E7010008E7010008E701000850
:1000F000E7010008E7010008E7010008E701000840
:10010000E7010008E7010008E7010008E70100082F
:10011000E7010008E7010008E7010008E70100081F
:10012000E7010008E7010008E7010008E70100080F
:1001300000F002F800F03AF80AA090E8000C8244BF
:100140008344AAF10107DA4501D100F02FF8AFF29C
:10015000090EBAE80F0013F0010F18BFFB1A43F0A5
:100160000103184794040000B4040000103A24BFAF
:1001700078C878C1FAD8520724BF30C830C144BF0C
:1001800004680C607047000000230024002500264E
:10019000103A28BF78C1FBD8520728BF30C148BFEA
:1001A0000B6070471FB51FBD10B510BD00F031F8D2
:1001B0001146FFF7F7FF00F00BF900F04FF803B41A
:1001C000FFF7F2FF03BC00F057F800000948804732
:1001D00009480047FEE7FEE7FEE7FEE7FEE7FEE729
:1001E000FEE7FEE7FEE7FEE704480549054A064B41
:1001F00070470000710300083101000878000020FA
:1002000078060020780200207802002070477047AE
:100210007047754600F02CF8AE4605006946534617
:1002200020F00700854618B020B5FFF7DDFFBDE8D8
:1002300020404FF000064FF000074FF000084FF04D
:10024000000B21F00701AC46ACE8C009ACE8C009DE
:10025000ACE8C009ACE8C0098D46704710B504464B
:10026000AFF300802046BDE81040FFF7A8BF0000B4
:10027000004870471400002001491820ABBEFEE77B
:1002800026000200704710B500F002F810BD000013
:100290000CB50020019000903348006840F4803095
:1002A0003149086000BF3048006800F40030009019
:1002B0000198401C0190009818B90198B0F5A06F02
:1002C000F1D12948006800F4003010B101200090FD
:1002D00001E0002000900098012843D123480068E5
:1002E00040F01000214908600846006820F0030033
:1002F00008600846006840F0010008601A4840683D
:10030000194948600846406848600846406840F41B
:10031000806048600846406820F47C1048600846C9
:10032000406840F4C81048600846006840F080709B
:10033000086000BF0C48006800F000700028F9D089
:100340000948406820F003000749486008464068B3
:1003500040F00200486000BF0348406800F00C0015
:100360000828F9D10CBD0000001002400020024016
:1003700010B51348006840F00100114908600846B4
:100380004068104908400E494860084600680E4918
:1003900008400B4908600846006820F48020086087
:1003A0000846406820F4FE0048604FF41F00886053
:1003B000FFF769FF4FF000600449086010BD0000BE
:1003C000001002400000FFF8FFFFF6FE08ED00E01D
:1003D00000F072F800BFFEE73348006A00F4004006
:1003E000B0F5004F5ED03048C06940F0C0502E4993
:1003F000C8612E48006840F480702C4908602A4883
:10040000006A40F48030284908620846006A20F4F7
:10041000803008620846006A40F4014008620846DD
:10042000006A40F00100086200BF1F48006A00F047
:1004300001000028F9D01E4800881D49088000BF2F
:100440001C48008800F020000028F9D019480088D6
:1004500040F010001749088047F6FF701549083131
:1004600008801448008820F010001249088000BF5E
:100470001048008800F020000028F9D00D480088BE
:100480004FF6F77108400B49088000BF0948008803
:1004900000F008000828F9D10448006820F48070B2
:1004A00002490860704700000010024000700040E0
:1004B0002C6C00400428004070B5494800684FF497
:1004C0007A72B0FBF2F1B1F1807F00D31DE021F030
:1004D0007F40401E4FF0E022506150170F2200284D
:1004E00007DA13071D0E3F4B00F00F04241F1D55A4
:1004F00003E013071C0E3C4B1C5400BF00204FF0C0
:10050000E02290610720106100BF3848806940F008
:100510000100364988610846806940F0040088611E
:100520000846806940F0080088610846806940F00C
:10053000100088610846806940F020008861084604
:10054000806940F0400088610846806940F0800082
:1005500088610846806940F480708861FFF73CFF3D
:100560002348006820F040402149086008460068A0
:1005700040F0004008600846006840F040500860C5
:100580001A48C06940F001001849C86143F6FF707D
:10059000890408850F208885002088860846008CFD
:1005A00040F0010008841348008840F42040A1F87E
:1005B000440068200883C006008820F010000880EE
:1005C0000846008820F0600008800846008840F057
:1005D000800008800846008840F00100088070BD57
:1005E0000000002018ED00E000E400E000100240F0
:1005F00004080140440000401806000800000020E4
:10060000140000006C0100082C06000814000020F3
:10061000640600008801000800B4C4040000000063
:0C062000000000000102030406070809A6
:04000005080001CD21
:00000001FF
