:020000040800F2
:1000000078060020CD010008D5010008D7010008BE
:10001000D9010008DB010008DD0100080000000034
:10002000000000000000000000000000DF010008E8
:10003000E101000800000000E301000815080008C5
:10004000E7010008E7010008E7010008D9050008FA
:10005000E7010008E7010008E7010008E7010008E0
:10006000E7010008E7010008E7010008E7010008D0
:10007000E7010008E7010008E7010008E7010008C0
:10008000E7010008E7010008E7010008E7010008B0
:10009000E7010008E7010008E7010008E7010008A0
:1000A000E7010008E7010008E7010008E701000890
:1000B000E7010008E7010008E7010008E701000880
:1000C000E7010008E7010008E7010008E701000870
:1000D000E7010008E7010008E7010008E701000860
:1000E000E7010008E7010008E7010008E701000850
:1000F000E7010008E7010008E7010008E701000840
:10010000E7010008E7010008E7010008E70100082F
:10011000E7010008E7010008E7010008E70100081F
:10012000E7010008E7010008E7010008E70100080F
:1001300000F002F800F03AF80AA090E8000C8244BF
:100140008344AAF10107DA4501D100F02FF8AFF29C
:10015000090EBAE80F0013F0010F18BFFB1A43F0A5
:10016000010318475408000074080000103A24BF27
:1001700078C878C1FAD8520724BF30C830C144BF0C
:1001800004680C607047000000230024002500264E
:10019000103A28BF78C1FBD8520728BF30C148BFEA
:1001A0000B6070471FB51FBD10B510BD00F031F8D2
:1001B0001146FFF7F7FF00F0FBFB00F04FF803B428
:1001C000FFF7F2FF03BC00F057F800000948804732
:1001D00009480047FEE7FEE7FEE7FEE7FEE7FEE729
:1001E000FEE7FEE7FEE7FEE704480549054A064B41
:1001F000704700001908000831010008780000204D
:1002000078060020780200207802002070477047AE
:100210007047754600F02CF8AE4605006946534617
:1002200020F00700854618B020B5FFF7DDFFBDE8D8
:1002300020404FF000064FF000074FF000084FF04D
:10024000000B21F00701AC46ACE8C009ACE8C009DE
:10025000ACE8C009ACE8C0098D46704710B504464B
:10026000AFF300802046BDE81040FFF7A8BF0000B4
:10027000004870471400002001491820ABBEFEE77B
:1002800026000200704700001D48016841F04051FF
:100290000160016821F040410160016841F00041C6
:1002A00001601848C16941F00101C161800440F654
:1002B000FF710185FF21818501218186018C41F03B
:1002C00001010184018B41F040010183018B41F068
:1002D00020010183018B41F008010183018821F095
:1002E00010010180018821F060010180018841F046
:1002F00080010180018841F0010101807047000008
:100300000408014000100240401E411CFCD170470F
:1003100000B58E48016841F440510160016821F444
:100320004041016001688A4A114301600168894ABD
:10033000114001600168884A11430160001D016895
:10034000864A114301600168854A114001600168D5
:10035000844A114301608448016841F040510160C2
:10036000016821F040410160016841F000410160F5
:10037000001D016841F033310160016801F0333143
:100380000160016841F0883101607848416941F4B9
:10039000807141616D480822143002607448FFF793
:1003A000B3FF6A4810300260E02000F0E5F800205A
:1003B00000F0E6F8072000F0E3F8102000F0E0F885
:1003C000092000F0DDF8172000F0DAF80B2000F02B
:1003D000D7F8402000F0D4F88A2000F0D1F84B2064
:1003E00000F0CEF80A2000F0CBF80D2000F0C8F89D
:1003F0000F2000F0C5F8152000F0C2F8162000F01C
:10040000BFF80F2000F0BCF8E12000F0B5F80020A4
:1004100000F0B6F81A2000F0B3F81B2000F0B0F896
:10042000022000F0ADF80D2000F0AAF8052000F041
:10043000A7F8302000F0A4F8352000F0A1F8432000
:1004400000F09EF8022000F09BF80A2000F098F8D7
:10045000092000F095F8322000F092F8362000F0E4
:100460008FF80F2000F08CF8B12000F085F8A02064
:1004700000F086F8B42000F07FF8022000F080F849
:10048000C02000F079F8172000F07AF8152000F06D
:1004900077F8C12000F070F8412000F071F8C52015
:1004A00000F06AF8002000F06BF80A2000F068F80D
:1004B000802000F065F8B62000F05EF8022000F021
:1004C0005FF8B72000F058F8062000F059F8362001
:1004D00000F052F8E82000F053F83A2000F04CF811
:1004E000552000F04DF8E92000F046F8002000F01B
:1004F00047F8F72000F040F8A92000F041F851201B
:1005000000F03EF82C2000F03BF8822000F038F894
:10051000112000F031F81748FFF7F6FE292000F00F
:100520002BF800214FF4A0734FF4F072084600F04E
:100530002DF84FF416324FF4784302E0184600F0DD
:100540001FF8521E511CF9D100BD000000140140DB
:100550003300333033FF333F880088803333003338
:100560003333FF33888800880018014000100240B0
:1005700080841E00007C92004FF0C04108807047CC
:1005800001490880704700000000026030B5054650
:100590000C462A20FFF7F0FF280AFFF7F1FF284654
:1005A000FFF7EEFF100AFFF7EBFF1046FFF7E8FF3B
:1005B0002B20FFF7E1FF200AFFF7E2FF2046FFF7BD
:1005C000DFFF180AFFF7DCFF1846FFF7D9FFBDE889
:1005D00030402C20FFF7D0BF04480188C90703D062
:1005E000018821F0010101807047000004280040CB
:1005F0002D48016A090445D4C16941F08051C161A7
:10060000C16941F00061C161284A116841F48071FB
:100610001160016A41F480310162016A21F4803184
:100620000162016A41F400410162016A41F4807192
:100630000162016A41F001010162016AC907FCD04F
:100640001B48018801801B4801888906FCD5018868
:1006500041F010010180174B47F6FF7108331980F4
:10066000018821F01001018001888906FCD50188EC
:1006700021F00801018001880907FCD5106820F4E9
:10068000807010600B48001F018841F0010101805B
:10069000018841F002010180018841F004010180DC
:1006A00005490820086070470010024000700040B3
:1006B0002C6C00400428004000E100E0AFF3008013
:1006C0000CB50022019200922748016841F4803164
:1006D00001604FF4A063016801F4003100910199B9
:1006E000491C0191009911B901999942F3D101680E
:1006F000890302D50121009100E0009200990129AF
:1007000030D11A490A6842F010020A600A6822F0E1
:1007100003020A600A6842F001020A60416841600F
:1007200041684160416841F480614160416821F461
:100730007C114160416841F4C8114160016841F099
:100740008071016001688901FCD5416821F00301D5
:100750004160416841F0020141604168C1F381019B
:100760000229FAD10CBD0000001002400020024016
:1007700010B523484FF47A710068B0FBF1F0B0F186
:10078000807F0CD220F07F414FF0E020491E416174
:100790001C4AF021117000218161072101611A4872
:1007A000816941F001018161194A184951608169EB
:1007B00041F004018161816941F008018161816931
:1007C00041F010018161816941F0200181618169FD
:1007D00041F040018161816941F08001816181695D
:1007E00041F480718161FFF703FFFFF74DFDFFF7D3
:1007F0008FFD00F079F8BDE8104000F035B800003A
:100800000000002023ED00E0001002400003000281
:10081000000001407047000010B50F48016841F02A
:100820000101016041680D4A1140416001680C4AB4
:1008300011400160016821F480210160416821F4C8
:10084000FE0141604FF41F018160FFF737FF05494A
:100850004FF00060086010BD001002400000FFF87B
:10086000FFFFF6FE08ED00E019480168194A114043
:1008700001600168184A114301600168174A114379
:1008800001601748816941F48051816115480188F0
:1008900021F038010180018821F0020101800188E6
:1008A00021F001010180018821F4006101800188AB
:1008B00021F080010180018841F4407101800188AC
:1008C00041F004010180018841F04001018070473E
:1008D00000080140FFFF333F0000808000003330FC
:1008E000001002400030014027480168274A1140AB
:1008F00001600168264A114301600168254A1143DD
:100900000160214980140C3108602348016941F4D9
:10091000805101612148016841F4006101601F4874
:100920000C38016841F4006101601D492020087005
:100930001C49C000C1F800011B48C16941F4804155
:10094000C1611A48018841F020010180018821F02D
:1009500002010180018821F001010180018821F458
:1009600000610180018821F080010180018841F44B
:1009700040710180018841F004010180018841F04B
:100980004001018070470000040C0140FF3F333FED
:100990000080808000003330000001400C040140E2
:1009A00028E400E004E000E00010024000380040CD
:1009B000FFF7DEFEFEE70000D80900080000002077
:1009C000140000006C010008EC090008140000206D
:1009D000640600008801000800B4C40400000000A0
:0C09E000000000000102030406070809E3
:04000005080001CD21
:00000001FF
