:020000040800F2
:1000000080080020CD010008D5010008D7010008B4
:10001000D9010008DB010008DD0100080000000034
:10002000000000000000000000000000DF010008E8
:10003000E101000800000000E3010008AD0800082D
:10004000E7010008E7010008E70100086D06000865
:10005000E7010008E7010008E7010008E7010008E0
:10006000E7010008E7010008E7010008E7010008D0
:10007000E7010008E7010008E7010008E7010008C0
:10008000E7010008E7010008E7010008E7010008B0
:10009000E7010008E7010008E7010008E7010008A0
:1000A000E7010008E7010008E7010008E701000890
:1000B000E7010008E7010008E7010008E701000880
:1000C000E7010008E7010008E7010008E701000870
:1000D000E7010008E7010008E7010008E701000860
:1000E000E7010008E7010008E7010008E701000850
:1000F000E7010008E7010008E7010008E701000840
:10010000E7010008E7010008E7010008E70100082F
:10011000E7010008E7010008E7010008E70100081F
:10012000E7010008E7010008E7010008E70100080F
:1001300000F002F800F03AF80AA090E8000C8244BF
:100140008344AAF10107DA4501D100F02FF8AFF29C
:10015000090EBAE80F0013F0010F18BFFB1A43F0A5
:1001600001031847480A0000680A0000103A24BF3B
:1001700078C878C1FAD8520724BF30C830C144BF0C
:1001800004680C607047000000230024002500264E
:10019000103A28BF78C1FBD8520728BF30C148BFEA
:1001A0000B6070471FB51FBD10B510BD00F031F8D2
:1001B0001146FFF7F7FF00F0F5FC00F04FF803B42D
:1001C000FFF7F2FF03BC00F057F800000948804732
:1001D00009480047FEE7FEE7FEE7FEE7FEE7FEE729
:1001E000FEE7FEE7FEE7FEE704480549054A064B41
:1001F00070470000BD08000831010008800200209F
:100200008008002080040020800400207047704790
:100210007047754600F02CF8AE4605006946534617
:1002200020F00700854618B020B5FFF7DDFFBDE8D8
:1002300020404FF000064FF000074FF000084FF04D
:10024000000B21F00701AC46ACE8C009ACE8C009DE
:10025000ACE8C009ACE8C0098D46704710B504464B
:10026000AFF300802046BDE81040FFF7A8BF0000B4
:10027000004870472002002001491820ABBEFEE76D
:1002800026000200704700001C48016841F0405100
:100290000160016821F040410160016841F00041C6
:1002A00001601748C16941F00101C161800440F655
:1002B000FF710185FF2181858186018C41F001015B
:1002C0000184018B41F040010183018B41F0200149
:1002D0000183018B41F008010183018821F01001A5
:1002E0000180018821F060010180018841F08001D6
:1002F0000180018841F0010101807047040801403C
:100300000010024000B5024600F008F8014600F077
:1003100005F8401A9042FAD300BD00000148006879
:10032000704700001400002070B5AF48016841F428
:1003300040510160016821F4404101600168AB4A0D
:10034000114301600168AA4A114001600168A94A8D
:1003500011430160001D0168A74A11430160016853
:10036000A64A114001600168A54A11430160A548F1
:10037000016841F040510160016821F04041016095
:10038000016841F000410160001D016841F0333116
:100390000160016801F033310160016841F088318A
:1003A00001609948416941F4807141614FF02041F9
:1003B00041F2110008608C480824143004601920B0
:1003C000FFF7A0FF884810300460E02000F01EF91D
:1003D000002000F01FF9072000F01CF9102000F0A9
:1003E00019F9092000F016F9172000F013F90B2075
:1003F00000F010F9402000F00DF98A2000F00AF911
:100400004B2000F007F90A2000F004F90D2000F05D
:1004100001F90F2000F0FEF8152000F0FBF816207F
:1004200000F0F8F80F2000F0F5F8E12000F0EEF809
:10043000002000F0EFF81A2000F0ECF81B2000F08C
:10044000E9F8022000F0E6F80D2000F0E3F80520BE
:1004500000F0E0F8302000F0DDF8352000F0DAF8A8
:10046000432000F0D7F8022000F0D4F80A2000F072
:10047000D1F8092000F0CEF8322000F0CBF8362079
:1004800000F0C8F80F2000F0C5F8B12000F0BEF869
:10049000A02000F0BFF8B42000F0B8F8022000F06F
:1004A000B9F8C02000F0B2F8172000F0B3F815201A
:1004B00000F0B0F8C12000F0A9F8412000F0AAF83F
:1004C000C52000F0A3F8002000F0A4F80A2000F0F6
:1004D000A1F8802000F09EF8B62000F097F80220E6
:1004E00000F098F8B72000F091F8062000F092F89C
:1004F000362000F08BF8382000F08CF83A2000F01D
:1005000085F8552000F086F8E92000F07FF80020FB
:1005100000F080F8F72000F079F8A92000F07AF8D0
:10052000512000F077F82C2000F074F8822000F0C1
:1005300071F8112000F06AF87820FFF7E3FE292017
:1005400000F064F84FF4F075002140232A46084675
:1005500000F066F8AC0123464FF4784202E0104602
:1005600000F058F85B1E9BB2F9D280232A46412145
:10057000002000F055F823464FF6FF7202E01046C7
:1005800000F048F85B1E9BB2F9D2C0232A468121B5
:10059000002000F045F8234602E0002000F03AF881
:1005A0005B1E9BB2F9D24FF480732A46C121002012
:1005B00000F036F823464FF4FC6202E0104600F0EB
:1005C00029F85B1E9BB2F9D24FF4A0732A4640F281
:1005D0000111002000F024F802E01F2000F01AF8BA
:1005E000641EA4B2F9D270BD001401403300333050
:1005F00033FF333F88008880333300333333FF3396
:100600008888008800180140001002404FF0C04167
:1006100008807047014908807047000000000260B0
:1006200030B505460C462A20FFF7F0FF280AFFF7F1
:10063000F1FF2846FFF7EEFF100AFFF7EBFF104629
:10064000FFF7E8FF2B20FFF7E1FF200AFFF7E2FFAB
:100650002046FFF7DFFF180AFFF7DCFF1846FFF719
:10066000D9FFBDE830402C20FFF7D0BF04480188F7
:10067000C90703D0018821F0010101807047000003
:10068000042800402D48016A090445D4C16941F09D
:100690008051C161C16941F00061C161284A11689E
:1006A00041F480711160016A41F480310162016A94
:1006B00021F480310162016A41F400410162016A62
:1006C00041F480710162016A41F001010162016A35
:1006D000C907FCD01B48018801801B480188890696
:1006E000FCD5018841F010010180174B47F6FF71DE
:1006F00008331980018821F01001018001888906E2
:10070000FCD5018821F00801018001880907FCD58A
:10071000106820F4807010600B48001F018841F0C1
:1007200001010180018841F002010180018841F04E
:10073000040101800549082008607047001002404C
:10074000007000402C6C00400428004000E100E0F4
:10075000AFF300800CB50022019200922748016897
:1007600041F4803101604FF4A063016801F400316D
:1007700000910199491C0191009911B9019999427F
:10078000F3D10168890302D50121009100E00092B4
:100790000099012930D11A490A6842F010020A6012
:1007A0000A6822F003020A600A6842F001020A6045
:1007B0004168416041684160416841F48061416045
:1007C000416821F47C114160416841F4C8114160E5
:1007D000016841F08071016001688901FCD54168C0
:1007E00021F003014160416841F00201416041682C
:1007F000C1F381010229FAD10CBD000000100240B2
:100800000020024010B524484FF47A710068B0FB14
:10081000F1F0B0F1807F0CD220F07F414FF0E0206A
:10082000491E41611D4AF02111700021816107219B
:1008300001611B48816941F0010181611A4A19492E
:100840005160816941F004018161816941F00801D1
:100850008161816941F010018161816941F020016C
:100860008161816941F040018161816941F08001CC
:100870008161816941F480718161FFF703FFFFF7B6
:1008800003FDFFF751FD00F029F900F03FF8BDE846
:10089000104000F0DBB800000000002023ED00E075
:1008A00000100240020300020000014002480168FB
:1008B000491C0160704700001400002010B50F486B
:1008C000016841F00101016041680D4A1140416039
:1008D00001680C4A11400160016821F48021016027
:1008E000416821F4FE0141604FF41F018160FFF770
:1008F0002FFF05494FF00060086010BD0010024056
:100900000000FFF8FFFFF6FE08ED00E070B5364886
:100910000168364A114001600168354A114301609F
:100920000168344A114301603348816941F48051C0
:1009300081613248018821F038010180018821F06D
:1009400002010180018821F001010180018821F468
:1009500000610180018821F080010180018841F45B
:1009600040710180018841F004010180018841F05B
:1009700040010180224B002018701B4E10241436B9
:100980003460662000F09CF8351F2C60346099209C
:1009900000F096F82C6034609F2000F091F8002061
:1009A00000F08EF8002000F08BF8002000F088F8AE
:1009B00018702C601438052813D2DFE800F0030605
:1009C000090C0F000FA0586070BD11A0586070BDD9
:1009D00012A0586070BD14A0586070BD15A058607A
:1009E00070BD17A0586070BD00080140FFFF333F85
:1009F00000008080000033300010024000300140D1
:100A0000180000205732355130384256200000007F
:100A10005732355131364256200000005732355199
:100A20003332425620000000573235513634465694
:100A30002000000057323551313238465600000050
:100A400058585858585858585800000000B50020B9
:100A500000F00EF80020054A111891F808310B72C9
:100A6000401C80B2FF28F7D900BD0000180000200C
:100A700030B503461048102505600B2000F020F823
:100A8000180A00F01DF8D8B200F01AF8002000F0A3
:100A900017F8002000F014F80023084C002000F0A4
:100AA0000FF8E11881F808015B1C9BB2FF2BF5D908
:100AB0000148001F056030BD1408014018000020E7
:100AC00005490A899207FCD588810889C007FCD0AE
:100AD0008889C0B270470000003001402748016893
:100AE000274A114001600168264A114301600168EC
:100AF000254A11430160214980140C3108602348C4
:100B0000016941F4805101612148016841F40061AB
:100B100001601F480C38016841F4006101601D4903
:100B2000202008701C49C000C1F800011B48C169A1
:100B300041F48041C1611A48018841F020010180DF
:100B4000018821F002010180018821F0010101806A
:100B5000018821F400610180018821F08001018079
:100B6000018841F440710180018841F00401018055
:100B7000018841F04001018070470000040C0140F1
:100B8000FF3F333F00808080000033300000014091
:100B90000C04014028E400E004E000E00010024002
:100BA00000380040FFF72EFEFEE70000CC0B0008E7
:100BB00000000020180000006C010008E40B000891
:100BC00018000020680800008801000800B4C40470
:100BD00000000000000000000102030406070809ED
:040BE0000000000011
:04000005080001CD21
:00000001FF
